{
  "contractName": "ICO",
  "abi": [
    {
      "inputs": [
        {
          "internalType": "address payable",
          "name": "_governance",
          "type": "address"
        },
        {
          "internalType": "contract ERC20",
          "name": "_token",
          "type": "address"
        }
      ],
      "stateMutability": "nonpayable",
      "type": "constructor"
    },
    {
      "anonymous": false,
      "inputs": [
        {
          "indexed": true,
          "internalType": "address",
          "name": "purchaser",
          "type": "address"
        },
        {
          "indexed": true,
          "internalType": "address",
          "name": "beneficiary",
          "type": "address"
        },
        {
          "indexed": false,
          "internalType": "uint256",
          "name": "value",
          "type": "uint256"
        },
        {
          "indexed": false,
          "internalType": "uint256",
          "name": "amount",
          "type": "uint256"
        }
      ],
      "name": "TokenPurchase",
      "type": "event"
    },
    {
      "inputs": [],
      "name": "finalPrice",
      "outputs": [
        {
          "internalType": "uint256",
          "name": "",
          "type": "uint256"
        }
      ],
      "stateMutability": "view",
      "type": "function"
    },
    {
      "inputs": [],
      "name": "governance",
      "outputs": [
        {
          "internalType": "address payable",
          "name": "",
          "type": "address"
        }
      ],
      "stateMutability": "view",
      "type": "function"
    },
    {
      "inputs": [],
      "name": "idleTime",
      "outputs": [
        {
          "internalType": "uint256",
          "name": "",
          "type": "uint256"
        }
      ],
      "stateMutability": "view",
      "type": "function"
    },
    {
      "inputs": [
        {
          "internalType": "address",
          "name": "",
          "type": "address"
        }
      ],
      "name": "investors",
      "outputs": [
        {
          "internalType": "uint256",
          "name": "investmentCount",
          "type": "uint256"
        }
      ],
      "stateMutability": "view",
      "type": "function"
    },
    {
      "inputs": [],
      "name": "phaseOneSupply",
      "outputs": [
        {
          "internalType": "uint256",
          "name": "",
          "type": "uint256"
        }
      ],
      "stateMutability": "view",
      "type": "function"
    },
    {
      "inputs": [],
      "name": "phaseOneTimeLock",
      "outputs": [
        {
          "internalType": "uint256",
          "name": "",
          "type": "uint256"
        }
      ],
      "stateMutability": "view",
      "type": "function"
    },
    {
      "inputs": [],
      "name": "phaseThreeSupply",
      "outputs": [
        {
          "internalType": "uint256",
          "name": "",
          "type": "uint256"
        }
      ],
      "stateMutability": "view",
      "type": "function"
    },
    {
      "inputs": [],
      "name": "phaseThreeTimeLock",
      "outputs": [
        {
          "internalType": "uint256",
          "name": "",
          "type": "uint256"
        }
      ],
      "stateMutability": "view",
      "type": "function"
    },
    {
      "inputs": [],
      "name": "phaseTwoSupply",
      "outputs": [
        {
          "internalType": "uint256",
          "name": "",
          "type": "uint256"
        }
      ],
      "stateMutability": "view",
      "type": "function"
    },
    {
      "inputs": [],
      "name": "phaseTwoTimeLock",
      "outputs": [
        {
          "internalType": "uint256",
          "name": "",
          "type": "uint256"
        }
      ],
      "stateMutability": "view",
      "type": "function"
    },
    {
      "inputs": [],
      "name": "startPrice",
      "outputs": [
        {
          "internalType": "uint256",
          "name": "",
          "type": "uint256"
        }
      ],
      "stateMutability": "view",
      "type": "function"
    },
    {
      "inputs": [],
      "name": "startTime",
      "outputs": [
        {
          "internalType": "uint256",
          "name": "",
          "type": "uint256"
        }
      ],
      "stateMutability": "view",
      "type": "function"
    },
    {
      "inputs": [],
      "name": "token",
      "outputs": [
        {
          "internalType": "contract ERC20",
          "name": "",
          "type": "address"
        }
      ],
      "stateMutability": "view",
      "type": "function"
    },
    {
      "inputs": [],
      "name": "tokensSold",
      "outputs": [
        {
          "internalType": "uint256",
          "name": "",
          "type": "uint256"
        }
      ],
      "stateMutability": "view",
      "type": "function"
    },
    {
      "inputs": [],
      "name": "weiRaised",
      "outputs": [
        {
          "internalType": "uint256",
          "name": "",
          "type": "uint256"
        }
      ],
      "stateMutability": "view",
      "type": "function"
    },
    {
      "stateMutability": "payable",
      "type": "receive"
    },
    {
      "inputs": [
        {
          "internalType": "address payable",
          "name": "beneficiary",
          "type": "address"
        }
      ],
      "name": "buyTokens",
      "outputs": [],
      "stateMutability": "payable",
      "type": "function"
    },
    {
      "inputs": [],
      "name": "withdrawTokens",
      "outputs": [
        {
          "internalType": "bool",
          "name": "success",
          "type": "bool"
        }
      ],
      "stateMutability": "nonpayable",
      "type": "function"
    },
    {
      "inputs": [],
      "name": "getTokenCount",
      "outputs": [
        {
          "internalType": "uint256",
          "name": "",
          "type": "uint256"
        }
      ],
      "stateMutability": "view",
      "type": "function"
    },
    {
      "inputs": [
        {
          "internalType": "uint256",
          "name": "_tokens",
          "type": "uint256"
        }
      ],
      "name": "withdrawUnsoldTokens",
      "outputs": [
        {
          "internalType": "bool",
          "name": "success",
          "type": "bool"
        }
      ],
      "stateMutability": "nonpayable",
      "type": "function"
    },
    {
      "inputs": [
        {
          "internalType": "address payable",
          "name": "_governance",
          "type": "address"
        }
      ],
      "name": "setGovernance",
      "outputs": [
        {
          "internalType": "bool",
          "name": "success",
          "type": "bool"
        }
      ],
      "stateMutability": "nonpayable",
      "type": "function"
    },
    {
      "inputs": [
        {
          "internalType": "uint256",
          "name": "_weiAmount",
          "type": "uint256"
        }
      ],
      "name": "withdrawEthers",
      "outputs": [
        {
          "internalType": "bool",
          "name": "success",
          "type": "bool"
        }
      ],
      "stateMutability": "nonpayable",
      "type": "function"
    },
    {
      "inputs": [
        {
          "internalType": "uint256",
          "name": "index",
          "type": "uint256"
        }
      ],
      "name": "getInvestmentsByIndex",
      "outputs": [
        {
          "internalType": "uint256",
          "name": "weiAmount",
          "type": "uint256"
        },
        {
          "internalType": "uint256",
          "name": "tokensAmount",
          "type": "uint256"
        }
      ],
      "stateMutability": "view",
      "type": "function"
    },
    {
      "inputs": [],
      "name": "getCurrentRate",
      "outputs": [
        {
          "internalType": "uint256",
          "name": "",
          "type": "uint256"
        }
      ],
      "stateMutability": "view",
      "type": "function"
    }
  ],
  "bytecode": "0x60806040523480156200001157600080fd5b506040516200201938038062002019833981810160405260408110156200003757600080fd5b81019080805190602001909291908051906020019092919050505081600e60006101000a81548173ffffffffffffffffffffffffffffffffffffffff021916908373ffffffffffffffffffffffffffffffffffffffff160217905550806000806101000a81548173ffffffffffffffffffffffffffffffffffffffff021916908373ffffffffffffffffffffffffffffffffffffffff1602179055506028600281905550600a60038190555063619194f06001819055506200010a600c546202a300620001f660201b620015331760201c565b600c819055506200012c6001546207e900620001f660201b620015331760201c565b6009819055506200014e6009546207e900620001f660201b620015331760201c565b600a8190555062000170600a54620a8c00620001f660201b620015331760201c565b600b8190555062000198621e8e44670de0b6b3a76400006200027f60201b620015bb1760201c565b600681905550620001c062261bdc670de0b6b3a76400006200027f60201b620015bb1760201c565b600781905550620001e8622dc6c0670de0b6b3a76400006200027f60201b620015bb1760201c565b60088190555050506200030a565b60008082840190508381101562000275576040517f08c379a000000000000000000000000000000000000000000000000000000000815260040180806020018281038252601b8152602001807f536166654d6174683a206164646974696f6e206f766572666c6f77000000000081525060200191505060405180910390fd5b8091505092915050565b60008083141562000294576000905062000304565b6000828402905082848281620002a657fe5b0414620002ff576040517f08c379a000000000000000000000000000000000000000000000000000000000815260040180806020018281038252602181526020018062001ff86021913960400191505060405180910390fd5b809150505b92915050565b611cde806200031a6000396000f3fe6080604052600436106101445760003560e01c806378e97925116100b6578063c44aa1f41161006f578063c44aa1f414610513578063ec8ac4d81461053e578063f1a9af8914610582578063f4206706146105ad578063f7fb07b0146105fe578063fc0c546a1461062957610154565b806378e97925146103a85780637c275fb8146103d35780638d8f2adb1461042957806393bd738514610456578063a6b513ee14610481578063ab033ea9146104ac57610154565b806355a16c241161010857806355a16c2414610256578063595d2213146102815780635aa6e675146102ac57806362f3b1f6146102ed5780636f7bc9be1461031857806378a895671461037d57610154565b806303b4a4791461015957806319152e42146101845780634042b66f146101af57806345f085a6146101da578063518ab2a81461022b57610154565b36610154576101523361066a565b005b600080fd5b34801561016557600080fd5b5061016e610a5e565b6040518082815260200191505060405180910390f35b34801561019057600080fd5b50610199610a64565b6040518082815260200191505060405180910390f35b3480156101bb57600080fd5b506101c4610a6a565b6040518082815260200191505060405180910390f35b3480156101e657600080fd5b50610213600480360360208110156101fd57600080fd5b8101908080359060200190929190505050610a70565b60405180821515815260200191505060405180910390f35b34801561023757600080fd5b50610240610d15565b6040518082815260200191505060405180910390f35b34801561026257600080fd5b5061026b610d1b565b6040518082815260200191505060405180910390f35b34801561028d57600080fd5b50610296610d21565b6040518082815260200191505060405180910390f35b3480156102b857600080fd5b506102c1610d27565b604051808273ffffffffffffffffffffffffffffffffffffffff16815260200191505060405180910390f35b3480156102f957600080fd5b50610302610d4d565b6040518082815260200191505060405180910390f35b34801561032457600080fd5b506103676004803603602081101561033b57600080fd5b81019080803573ffffffffffffffffffffffffffffffffffffffff169060200190929190505050610d53565b6040518082815260200191505060405180910390f35b34801561038957600080fd5b50610392610d71565b6040518082815260200191505060405180910390f35b3480156103b457600080fd5b506103bd610e3e565b6040518082815260200191505060405180910390f35b3480156103df57600080fd5b5061040c600480360360208110156103f657600080fd5b8101908080359060200190929190505050610e44565b604051808381526020018281526020019250505060405180910390f35b34801561043557600080fd5b5061043e610ec6565b60405180821515815260200191505060405180910390f35b34801561046257600080fd5b5061046b6111e4565b6040518082815260200191505060405180910390f35b34801561048d57600080fd5b506104966111ea565b6040518082815260200191505060405180910390f35b3480156104b857600080fd5b506104fb600480360360208110156104cf57600080fd5b81019080803573ffffffffffffffffffffffffffffffffffffffff1690602001909291905050506111f0565b60405180821515815260200191505060405180910390f35b34801561051f57600080fd5b506105286112ff565b6040518082815260200191505060405180910390f35b6105806004803603602081101561055457600080fd5b81019080803573ffffffffffffffffffffffffffffffffffffffff16906020019092919050505061066a565b005b34801561058e57600080fd5b50610597611305565b6040518082815260200191505060405180910390f35b3480156105b957600080fd5b506105e6600480360360208110156105d057600080fd5b810190808035906020019092919050505061130b565b60405180821515815260200191505060405180910390f35b34801561060a57600080fd5b50610613611442565b6040518082815260200191505060405180910390f35b34801561063557600080fd5b5061063e61150f565b604051808273ffffffffffffffffffffffffffffffffffffffff16815260200191505060405180910390f35b600034905066038d7ea4c680008110156106cf576040517f08c379a0000000000000000000000000000000000000000000000000000000008152600401808060200182810382526028815260200180611c3e6028913960400191505060405180910390fd5b600b54421115610747576040517f08c379a00000000000000000000000000000000000000000000000000000000081526004018080602001828103825260108152602001807f73616c6520697320636c6f73656420210000000000000000000000000000000081525060200191505060405180910390fd5b6001544210156107bf576040517f08c379a00000000000000000000000000000000000000000000000000000000081526004018080602001828103825260148152602001807f49434f206973206e6f74206f70656e207965742100000000000000000000000081525060200191505060405180910390fd5b6000600d60008473ffffffffffffffffffffffffffffffffffffffff1673ffffffffffffffffffffffffffffffffffffffff1681526020019081526020016000209050600061080d83611641565b905060008111610885576040517f08c379a00000000000000000000000000000000000000000000000000000000081526004018080602001828103825260048152602001807f4e65696e0000000000000000000000000000000000000000000000000000000081525060200191505060405180910390fd5b61089a8360045461153390919063ffffffff16565b600481905550600182600101540182600101819055508160020160008360010154815260200190815260200160002050838260020160008460010154815260200190815260200160002060000160006101000a81548173ffffffffffffffffffffffffffffffffffffffff021916908373ffffffffffffffffffffffffffffffffffffffff16021790555082826002016000846001015481526020019081526020016000206001018190555080826002016000846001015481526020019081526020016000206002018190555061097c8160055461153390919063ffffffff16565b600581905550600e60009054906101000a900473ffffffffffffffffffffffffffffffffffffffff1673ffffffffffffffffffffffffffffffffffffffff166108fc849081150290604051600060405180830381858888f193505050501580156109ea573d6000803e3d6000fd5b508373ffffffffffffffffffffffffffffffffffffffff163373ffffffffffffffffffffffffffffffffffffffff167f623b3804fa71d67900d064613da8f94b9617215ee90799290593e1745087ad188584604051808381526020018281526020019250505060405180910390a350505050565b60085481565b600a5481565b60045481565b6000600e60009054906101000a900473ffffffffffffffffffffffffffffffffffffffff1673ffffffffffffffffffffffffffffffffffffffff163373ffffffffffffffffffffffffffffffffffffffff1614610b35576040517f08c379a000000000000000000000000000000000000000000000000000000000815260040180806020018281038252600b8152602001807f21676f7665726e616e636500000000000000000000000000000000000000000081525060200191505060405180910390fd5b600b544211610bac576040517f08c379a00000000000000000000000000000000000000000000000000000000081526004018080602001828103825260108152602001807f49434f206e6f742066696e69736865640000000000000000000000000000000081525060200191505060405180910390fd5b60008054906101000a900473ffffffffffffffffffffffffffffffffffffffff1673ffffffffffffffffffffffffffffffffffffffff1663a9059cbb600e60009054906101000a900473ffffffffffffffffffffffffffffffffffffffff16846040518363ffffffff1660e01b8152600401808373ffffffffffffffffffffffffffffffffffffffff16815260200182815260200192505050602060405180830381600087803b158015610c5f57600080fd5b505af1158015610c73573d6000803e3d6000fd5b505050506040513d6020811015610c8957600080fd5b8101908080519060200190929190505050610d0c576040517f08c379a00000000000000000000000000000000000000000000000000000000081526004018080602001828103825260178152602001807f5472616e73666572206e6f74207375636365737366756c00000000000000000081525060200191505060405180910390fd5b60019050919050565b60055481565b60065481565b60075481565b600e60009054906101000a900473ffffffffffffffffffffffffffffffffffffffff1681565b600b5481565b600d6020528060005260406000206000915090508060010154905081565b600080600d60003373ffffffffffffffffffffffffffffffffffffffff1673ffffffffffffffffffffffffffffffffffffffff168152602001908152602001600020905060008160020160008360010154815260200190815260200160002060000160009054906101000a900473ffffffffffffffffffffffffffffffffffffffff169050600080600190505b8360010154811015610e345783600201600082815260200190815260200160002060020154820191508080600101915050610dfe565b5080935050505090565b60015481565b6000806000600d60003373ffffffffffffffffffffffffffffffffffffffff1673ffffffffffffffffffffffffffffffffffffffff168152602001908152602001600020905080600201600085815260200190815260200160002060010154816002016000868152602001908152602001600020600201549250925050915091565b600080600d60003373ffffffffffffffffffffffffffffffffffffffff1673ffffffffffffffffffffffffffffffffffffffff168152602001908152602001600020905060008160020160008360010154815260200190815260200160002060000160009054906101000a900473ffffffffffffffffffffffffffffffffffffffff1690508073ffffffffffffffffffffffffffffffffffffffff163373ffffffffffffffffffffffffffffffffffffffff1614610fcf576040517f08c379a0000000000000000000000000000000000000000000000000000000008152600401808060200182810382526022815260200180611c876022913960400191505060405180910390fd5b600b54421015611047576040517f08c379a00000000000000000000000000000000000000000000000000000000081526004018080602001828103825260208152602001807f746f6b656e732063616e6e6f742062652077697468647261776e20796574202181525060200191505060405180910390fd5b6000600190505b826001015481116111da5760008054906101000a900473ffffffffffffffffffffffffffffffffffffffff1673ffffffffffffffffffffffffffffffffffffffff1663a9059cbb83856002016000858152602001908152602001600020600201546040518363ffffffff1660e01b8152600401808373ffffffffffffffffffffffffffffffffffffffff16815260200182815260200192505050602060405180830381600087803b15801561110257600080fd5b505af1158015611116573d6000803e3d6000fd5b505050506040513d602081101561112c57600080fd5b81019080805190602001909291905050506111af576040517f08c379a00000000000000000000000000000000000000000000000000000000081526004018080602001828103825260178152602001807f5472616e73666572206e6f74207375636365737366756c00000000000000000081525060200191505060405180910390fd5b600083600201600083815260200190815260200160002060020181905550808060010191505061104e565b5060019250505090565b600c5481565b60035481565b6000600e60009054906101000a900473ffffffffffffffffffffffffffffffffffffffff1673ffffffffffffffffffffffffffffffffffffffff163373ffffffffffffffffffffffffffffffffffffffff16146112b5576040517f08c379a000000000000000000000000000000000000000000000000000000000815260040180806020018281038252600b8152602001807f21676f7665726e616e636500000000000000000000000000000000000000000081525060200191505060405180910390fd5b81600e60006101000a81548173ffffffffffffffffffffffffffffffffffffffff021916908373ffffffffffffffffffffffffffffffffffffffff16021790555060019050919050565b60095481565b60025481565b6000600e60009054906101000a900473ffffffffffffffffffffffffffffffffffffffff1673ffffffffffffffffffffffffffffffffffffffff163373ffffffffffffffffffffffffffffffffffffffff16146113d0576040517f08c379a00000000000000000000000000000000000000000000000000000000081526004018080602001828103825260188152602001807f4f6e6c7920617574686f72697a6564206d6574686f642021000000000000000081525060200191505060405180910390fd5b600e60009054906101000a900473ffffffffffffffffffffffffffffffffffffffff1673ffffffffffffffffffffffffffffffffffffffff166108fc839081150290604051600060405180830381858888f19350505050158015611438573d6000803e3d6000fd5b5060019050919050565b6000600b54421115611457576000905061150c565b60015442101561146a576028905061150c565b600061148160015442611a2390919063ffffffff16565b905060006114b06001546114a2600c54600b5461153390919063ffffffff16565b611a2390919063ffffffff16565b905060006114cb600354600254611a2390919063ffffffff16565b90506115066114f5836114e784876115bb90919063ffffffff16565b611a6d90919063ffffffff16565b600254611a2390919063ffffffff16565b93505050505b90565b60008054906101000a900473ffffffffffffffffffffffffffffffffffffffff1681565b6000808284019050838110156115b1576040517f08c379a000000000000000000000000000000000000000000000000000000000815260040180806020018281038252601b8152602001807f536166654d6174683a206164646974696f6e206f766572666c6f77000000000081525060200191505060405180910390fd5b8091505092915050565b6000808314156115ce576000905061163b565b60008284029050828482816115df57fe5b0414611636576040517f08c379a0000000000000000000000000000000000000000000000000000000008152600401808060200182810382526021815260200180611c666021913960400191505060405180910390fd5b809150505b92915050565b600080429050600061166c81611667611658611442565b876115bb90919063ffffffff16565b611533565b9250600c5460095403821161172c57600083600654031061172257600083600654031015611702576040517f08c379a00000000000000000000000000000000000000000000000000000000081526004018080602001828103825260188152602001807f7068617365206f6e6520737570706c7920656e6465642021000000000000000081525060200191505060405180910390fd5b61171783600654611a2390919063ffffffff16565b600681905550611727565b600092505b611a1c565b600c546009540382118015611742575060095482105b156117e2576000925060008014156117c2576040517f08c379a000000000000000000000000000000000000000000000000000000000815260040180806020018281038252600d8152602001807f49444c452054494d45203120210000000000000000000000000000000000000081525060200191505060405180910390fd5b6117d783600754611a2390919063ffffffff16565b600781905550611a1b565b600954821180156117f85750600c54600a540382105b156118ae5760008360075403106118a457600083600754031015611884576040517f08c379a00000000000000000000000000000000000000000000000000000000081526004018080602001828103825260188152602001807f70686173652074776f20737570706c7920656e6465642021000000000000000081525060200191505060405180910390fd5b61189983600754611a2390919063ffffffff16565b6007819055506118a9565b600092505b611a1a565b600c54600a5403821180156118c45750600a5482105b1561195457600092506000801415611944576040517f08c379a000000000000000000000000000000000000000000000000000000000815260040180806020018281038252600d8152602001807f49444c452054494d45203220210000000000000000000000000000000000000081525060200191505060405180910390fd5b8260075403600781905550611a19565b600a54821180156119665750600b5482105b15611a18576000836008540310611a12576000836008540310156119f2576040517f08c379a000000000000000000000000000000000000000000000000000000000815260040180806020018281038252601a8152602001807f706861736520746872656520737570706c7920656e646564202100000000000081525060200191505060405180910390fd5b611a0783600854611a2390919063ffffffff16565b600881905550611a17565b600092505b5b5b5b5b5b5050919050565b6000611a6583836040518060400160405280601e81526020017f536166654d6174683a207375627472616374696f6e206f766572666c6f770000815250611ab7565b905092915050565b6000611aaf83836040518060400160405280601a81526020017f536166654d6174683a206469766973696f6e206279207a65726f000000000000815250611b77565b905092915050565b6000838311158290611b64576040517f08c379a00000000000000000000000000000000000000000000000000000000081526004018080602001828103825283818151815260200191508051906020019080838360005b83811015611b29578082015181840152602081019050611b0e565b50505050905090810190601f168015611b565780820380516001836020036101000a031916815260200191505b509250505060405180910390fd5b5060008385039050809150509392505050565b60008083118290611c23576040517f08c379a00000000000000000000000000000000000000000000000000000000081526004018080602001828103825283818151815260200191508051906020019080838360005b83811015611be8578082015181840152602081019050611bcd565b50505050905090810190601f168015611c155780820380516001836020036101000a031916815260200191505b509250505060405180910390fd5b506000838581611c2f57fe5b04905080915050939250505056fe696e766573746d656e742073686f756c64206265206d6f7265207468616e20302e30303120455754536166654d6174683a206d756c7469706c69636174696f6e206f766572666c6f776e6f7420612076616c696420696e766573746f7220746f2077697468647261772021a2646970667358221220c92dad02bdb239223ab94a1f57b428c15930e07ff6201982b4f30b3f1792a6ab64736f6c634300060c0033536166654d6174683a206d756c7469706c69636174696f6e206f766572666c6f77",
  "immutableReferences": {},
  "source": "// SPDX-License-Identifier: MIT\npragma solidity 0.6.12;\n\ninterface ERC20 {\n    function totalSupply() external view returns (uint256);\n\n    function balanceOf(address account) external view returns (uint256);\n\n    function transfer(address recipient, uint256 amount)\n        external\n        returns (bool);\n\n    function allowance(address owner, address spender)\n        external\n        view\n        returns (uint256);\n\n    function approve(address spender, uint256 amount) external returns (bool);\n\n    function transferFrom(\n        address sender,\n        address recipient,\n        uint256 amount\n    ) external returns (bool);\n\n    event Transfer(address indexed from, address indexed to, uint256 value);\n    event Approval(\n        address indexed owner,\n        address indexed spender,\n        uint256 value\n    );\n}\n\nlibrary SafeMath {\n    function add(uint256 a, uint256 b) internal pure returns (uint256) {\n        uint256 c = a + b;\n        require(c >= a, \"SafeMath: addition overflow\");\n\n        return c;\n    }\n\n    function sub(uint256 a, uint256 b) internal pure returns (uint256) {\n        return sub(a, b, \"SafeMath: subtraction overflow\");\n    }\n\n    function sub(\n        uint256 a,\n        uint256 b,\n        string memory errorMessage\n    ) internal pure returns (uint256) {\n        require(b <= a, errorMessage);\n        uint256 c = a - b;\n\n        return c;\n    }\n\n    function mul(uint256 a, uint256 b) internal pure returns (uint256) {\n        if (a == 0) {\n            return 0;\n        }\n\n        uint256 c = a * b;\n        require(c / a == b, \"SafeMath: multiplication overflow\");\n\n        return c;\n    }\n\n    function div(uint256 a, uint256 b) internal pure returns (uint256) {\n        return div(a, b, \"SafeMath: division by zero\");\n    }\n\n    function div(\n        uint256 a,\n        uint256 b,\n        string memory errorMessage\n    ) internal pure returns (uint256) {\n        // Solidity only automatically asserts when dividing by 0\n        require(b > 0, errorMessage);\n        uint256 c = a / b;\n\n        return c;\n    }\n}\n\ncontract ICO {\n    using SafeMath for uint256;\n    ERC20 public token;\n\n    uint256 public startTime;\n    uint256 public startPrice;\n    uint256 public finalPrice;\n\n    uint256 public weiRaised;\n    uint256 public tokensSold;\n\n    uint256 public phaseOneSupply;\n    uint256 public phaseTwoSupply;\n    uint256 public phaseThreeSupply;\n\n    uint256 public phaseOneTimeLock;\n    uint256 public phaseTwoTimeLock;\n    uint256 public phaseThreeTimeLock;\n    uint256 public idleTime;\n\n    struct Investments {\n        address payable buyer;\n        uint256 weiAmount;\n        uint256 tokensAmount;\n    }\n\n    struct Investors {\n        uint256[] investmentList;\n        uint256 investmentCount;\n        mapping(uint256 => Investments) investments;\n    }\n\n    mapping(address => Investors) public investors;\n\n    address payable public governance;\n\n    event TokenPurchase(\n        address indexed purchaser,\n        address indexed beneficiary,\n        uint256 value,\n        uint256 amount\n    );\n\n    constructor(address payable _governance, ERC20 _token) public {\n        governance = _governance;\n        token = _token;\n\n        startPrice = 40;\n        finalPrice = 10;\n\n        startTime = 1636930800; //Mon Nov 15 2021 00:00:00 GMT+0100 (Central Europe)\n        idleTime = SafeMath.add(idleTime, 2880 minutes);\n\n        phaseOneTimeLock = SafeMath.add(startTime, 8640 minutes);\n        phaseTwoTimeLock = SafeMath.add(phaseOneTimeLock, 8640 minutes);\n        phaseThreeTimeLock = SafeMath.add(phaseTwoTimeLock, 11520 minutes);\n\n        phaseOneSupply = SafeMath.mul(2002500, 10**(18)); // . 2,002,500  (26.7%)\n        phaseTwoSupply = SafeMath.mul(2497500, 10**(18)); // . 2,497,500  (33.3%)\n        phaseThreeSupply = SafeMath.mul(3000000, 10**(18)); // 3,000,000  (40.0%)\n    }\n\n    receive() external payable {\n        buyTokens(msg.sender);\n    }\n\n    function _calculateTokens(uint256 _weiAmount)\n        internal\n        returns (uint256 _tokens)\n    {\n        uint256 _now = now;\n        uint256 _tokensAmount = 0;\n\n        _tokens = SafeMath.add(_tokensAmount, _weiAmount.mul(getCurrentRate()));\n\n        if (_now <= (phaseOneTimeLock - (idleTime))) {\n            if ((phaseOneSupply - _tokens) >= 0) {\n                require(\n                    (phaseOneSupply - _tokens) >= 0,\n                    \"phase one supply ended !\"\n                );\n                phaseOneSupply = phaseOneSupply.sub(_tokens);\n            } else {\n                _tokens = 0;\n            }\n        } else if (\n            _now > (phaseOneTimeLock - (idleTime)) && _now < phaseOneTimeLock\n        ) {\n            _tokens = 0;\n            require(0 != 0, \"IDLE TIME 1 !\");\n            phaseTwoSupply = phaseTwoSupply.sub(_tokens);\n        } else if (\n            _now > phaseOneTimeLock && _now < (phaseTwoTimeLock - (idleTime))\n        ) {\n            if ((phaseTwoSupply - _tokens) >= 0) {\n                require(\n                    (phaseTwoSupply - _tokens) >= 0,\n                    \"phase two supply ended !\"\n                );\n                phaseTwoSupply = phaseTwoSupply.sub(_tokens);\n            } else {\n                _tokens = 0;\n            }\n        } else if (\n            _now > (phaseTwoTimeLock - (idleTime)) && _now < phaseTwoTimeLock\n        ) {\n            _tokens = 0;\n            require(0 != 0, \"IDLE TIME 2 !\");\n            phaseTwoSupply = phaseTwoSupply - _tokens;\n        } else if (_now > phaseTwoTimeLock && _now < (phaseThreeTimeLock)) {\n            if (phaseThreeSupply - _tokens >= 0) {\n                require(\n                    (phaseThreeSupply - _tokens) >= 0,\n                    \"phase three supply ended !\"\n                );\n                phaseThreeSupply = phaseThreeSupply.sub(_tokens);\n            } else {\n                _tokens = 0;\n            }\n        }\n        return _tokens;\n    }\n\n    function buyTokens(address payable beneficiary) public payable {\n        uint256 weiAmount = msg.value;\n\n        require(\n            weiAmount >= 0.001 ether,\n            \"investment should be more than 0.001 EWT\"\n        );\n        require(now <= phaseThreeTimeLock, \"sale is closed !\");\n        require(now >= startTime, \"ICO is not open yet!\");\n        Investors storage investor = investors[beneficiary];\n\n        uint256 tokens = 0;\n\n        tokens = _calculateTokens(weiAmount);\n        require(tokens > 0, \"Nein\");\n        weiRaised = weiRaised.add(weiAmount);\n\n        investor.investmentCount = investor.investmentCount + 1;\n        investor.investments[investor.investmentCount];\n        investor.investments[investor.investmentCount].buyer = beneficiary;\n        investor.investments[investor.investmentCount].weiAmount = weiAmount;\n        investor.investments[investor.investmentCount].tokensAmount = tokens;\n\n        tokensSold = tokensSold.add(tokens);\n\n        // Eth amount is going to owner\n        governance.transfer(weiAmount);\n\n        emit TokenPurchase(msg.sender, beneficiary, weiAmount, tokens);\n    }\n\n    function withdrawTokens() public returns (bool success) {\n        Investors storage investor = investors[msg.sender];\n        address buyer = investor.investments[investor.investmentCount].buyer;\n\n        require(msg.sender == buyer, \"not a valid investor to withdraw !\");\n        require(now >= phaseThreeTimeLock, \"tokens cannot be withdrawn yet !\");\n\n        for (uint256 i = 1; i <= investor.investmentCount; i++) {\n            require(\n                token.transfer(buyer, investor.investments[i].tokensAmount),\n                \"Transfer not successful\"\n            );\n            investor.investments[i].tokensAmount = 0;\n        }\n        return true;\n    }\n\n    function getTokenCount() public view returns (uint256) {\n        Investors storage investor = investors[msg.sender];\n        address buyer = investor.investments[investor.investmentCount].buyer;\n\n        uint256 tokensAmount = 0;\n        for (uint256 i = 1; i < investor.investmentCount; i++) {\n            tokensAmount =\n                tokensAmount +\n                (investor.investments[i].tokensAmount);\n        }\n\n        return tokensAmount;\n    }\n\n    function withdrawUnsoldTokens(uint256 _tokens)\n        public\n        returns (bool success)\n    {\n        require(msg.sender == governance, \"!governance\");\n        require(now > phaseThreeTimeLock, \"ICO not finished\");\n\n        require(token.transfer(governance, _tokens), \"Transfer not successful\");\n\n        return true;\n    }\n\n    function setGovernance(address payable _governance)\n        public\n        returns (bool success)\n    {\n        require(msg.sender == governance, \"!governance\");\n\n        governance = _governance;\n\n        return true;\n    }\n\n    function withdrawEthers(uint256 _weiAmount) public returns (bool success) {\n        require(msg.sender == governance, \"Only authorized method !\");\n\n        governance.transfer(_weiAmount);\n\n        return true;\n    }\n\n    function getInvestmentsByIndex(uint256 index)\n        public\n        view\n        returns (uint256 weiAmount, uint256 tokensAmount)\n    {\n        Investors storage investor = investors[msg.sender];\n\n        return (\n            investor.investments[index].weiAmount,\n            investor.investments[index].tokensAmount\n        );\n    }\n\n    function getCurrentRate() public view returns (uint256) {\n        if (now > phaseThreeTimeLock) {\n            return 0;\n        }\n        if (now < startTime) {\n            return 40;\n        }\n        uint256 elapsedTime = block.timestamp.sub(startTime);\n        uint256 timeRange = phaseThreeTimeLock.add(idleTime).sub(startTime);\n        uint256 rateRange = startPrice.sub(finalPrice);\n        return startPrice.sub(elapsedTime.mul(rateRange).div(timeRange));\n    }\n}\n",
  "sourcePath": "/Users/roger.capone/Desktop/joder/Front End/Lemon Network Front/Fiverr-Lemoniod-React-master/src/contracts/ICO.sol",
  "compiler": {
    "name": "solc",
    "version": "0.6.12+commit.27d51765.Emscripten.clang"
  },
  "schemaVersion": "3.4.1",
  "updatedAt": "2021-12-07T16:26:27.177Z",
  "devdoc": {
    "kind": "dev",
    "methods": {},
    "version": 1
  },
  "userdoc": {
    "kind": "user",
    "methods": {},
    "version": 1
  }
}