{
  "contractName": "LMNExit",
  "abi": [
    {
      "inputs": [
        {
          "internalType": "address payable",
          "name": "_governance",
          "type": "address"
        },
        {
          "internalType": "address",
          "name": "_lmnSend",
          "type": "address"
        },
        {
          "internalType": "contract ERC20",
          "name": "_token",
          "type": "address"
        }
      ],
      "stateMutability": "nonpayable",
      "type": "constructor"
    },
    {
      "anonymous": false,
      "inputs": [
        {
          "indexed": false,
          "internalType": "address",
          "name": "investor",
          "type": "address"
        },
        {
          "indexed": false,
          "internalType": "uint256",
          "name": "ewtBack",
          "type": "uint256"
        },
        {
          "indexed": false,
          "internalType": "uint256",
          "name": "lmnAmount",
          "type": "uint256"
        },
        {
          "indexed": false,
          "internalType": "uint256",
          "name": "date",
          "type": "uint256"
        }
      ],
      "name": "CashBackDone",
      "type": "event"
    },
    {
      "anonymous": false,
      "inputs": [
        {
          "indexed": true,
          "internalType": "address",
          "name": "user",
          "type": "address"
        },
        {
          "indexed": false,
          "internalType": "bool",
          "name": "state",
          "type": "bool"
        }
      ],
      "name": "StateChange",
      "type": "event"
    },
    {
      "inputs": [],
      "name": "finalPrice",
      "outputs": [
        {
          "internalType": "uint256",
          "name": "",
          "type": "uint256"
        }
      ],
      "stateMutability": "view",
      "type": "function",
      "constant": true
    },
    {
      "inputs": [],
      "name": "governance",
      "outputs": [
        {
          "internalType": "address payable",
          "name": "",
          "type": "address"
        }
      ],
      "stateMutability": "view",
      "type": "function",
      "constant": true
    },
    {
      "inputs": [],
      "name": "lmnSend",
      "outputs": [
        {
          "internalType": "address",
          "name": "",
          "type": "address"
        }
      ],
      "stateMutability": "view",
      "type": "function",
      "constant": true
    },
    {
      "inputs": [],
      "name": "rate",
      "outputs": [
        {
          "internalType": "uint256",
          "name": "",
          "type": "uint256"
        }
      ],
      "stateMutability": "view",
      "type": "function",
      "constant": true
    },
    {
      "inputs": [],
      "name": "state",
      "outputs": [
        {
          "internalType": "bool",
          "name": "",
          "type": "bool"
        }
      ],
      "stateMutability": "view",
      "type": "function",
      "constant": true
    },
    {
      "inputs": [],
      "name": "token",
      "outputs": [
        {
          "internalType": "contract ERC20",
          "name": "",
          "type": "address"
        }
      ],
      "stateMutability": "view",
      "type": "function",
      "constant": true
    },
    {
      "inputs": [],
      "name": "totalExit",
      "outputs": [
        {
          "internalType": "uint256",
          "name": "",
          "type": "uint256"
        }
      ],
      "stateMutability": "view",
      "type": "function",
      "constant": true
    },
    {
      "stateMutability": "payable",
      "type": "receive",
      "payable": true
    },
    {
      "inputs": [
        {
          "internalType": "uint256",
          "name": "lmnAmount",
          "type": "uint256"
        }
      ],
      "name": "cashBack",
      "outputs": [],
      "stateMutability": "payable",
      "type": "function",
      "payable": true
    },
    {
      "inputs": [],
      "name": "changeState",
      "outputs": [],
      "stateMutability": "nonpayable",
      "type": "function"
    },
    {
      "inputs": [
        {
          "internalType": "uint256",
          "name": "_tokens",
          "type": "uint256"
        }
      ],
      "name": "withdrawUnsoldTokens",
      "outputs": [
        {
          "internalType": "bool",
          "name": "success",
          "type": "bool"
        }
      ],
      "stateMutability": "nonpayable",
      "type": "function"
    },
    {
      "inputs": [
        {
          "internalType": "uint256",
          "name": "_weiAmount",
          "type": "uint256"
        }
      ],
      "name": "withdrawEthers",
      "outputs": [
        {
          "internalType": "bool",
          "name": "success",
          "type": "bool"
        }
      ],
      "stateMutability": "nonpayable",
      "type": "function"
    }
  ],
  "bytecode": "0x608060405234801561001057600080fd5b50604051610e56380380610e568339818101604052606081101561003357600080fd5b8101908080519060200190929190805190602001909291908051906020019092919050505082600460016101000a81548173ffffffffffffffffffffffffffffffffffffffff021916908373ffffffffffffffffffffffffffffffffffffffff16021790555081600560006101000a81548173ffffffffffffffffffffffffffffffffffffffff021916908373ffffffffffffffffffffffffffffffffffffffff160217905550806000806101000a81548173ffffffffffffffffffffffffffffffffffffffff021916908373ffffffffffffffffffffffffffffffffffffffff160217905550605360018190555060006002819055506001600460006101000a81548160ff021916908315150217905550505050610cff806101576000396000f3fe6080604052600436106100a05760003560e01c80636ff9e184116100645780636ff9e184146101c25780638412e66714610203578063a6b513ee1461021a578063c19d93fb14610245578063f420670614610272578063fc0c546a146102c3576100a7565b8063103d0fc0146100ac5780632c4e722e146100da57806345f085a6146101055780635aa6e6751461015657806369dda74c14610197576100a7565b366100a757005b600080fd5b6100d8600480360360208110156100c257600080fd5b8101908080359060200190929190505050610304565b005b3480156100e657600080fd5b506100ef610781565b6040518082815260200191505060405180910390f35b34801561011157600080fd5b5061013e6004803603602081101561012857600080fd5b8101908080359060200190929190505050610787565b60405180821515815260200191505060405180910390f35b34801561016257600080fd5b5061016b6109b5565b604051808273ffffffffffffffffffffffffffffffffffffffff16815260200191505060405180910390f35b3480156101a357600080fd5b506101ac6109db565b6040518082815260200191505060405180910390f35b3480156101ce57600080fd5b506101d76109e1565b604051808273ffffffffffffffffffffffffffffffffffffffff16815260200191505060405180910390f35b34801561020f57600080fd5b50610218610a07565b005b34801561022657600080fd5b5061022f610b55565b6040518082815260200191505060405180910390f35b34801561025157600080fd5b5061025a610b5b565b60405180821515815260200191505060405180910390f35b34801561027e57600080fd5b506102ab6004803603602081101561029557600080fd5b8101908080359060200190929190505050610b6e565b60405180821515815260200191505060405180910390f35b3480156102cf57600080fd5b506102d8610ca5565b604051808273ffffffffffffffffffffffffffffffffffffffff16815260200191505060405180910390f35b60011515600460009054906101000a900460ff1615151461038d576040517f08c379a00000000000000000000000000000000000000000000000000000000081526004018080602001828103825260158152602001807f53657276696365206e6f7420417661696c61626c65000000000000000000000081525060200191505060405180910390fd5b60008060009054906101000a900473ffffffffffffffffffffffffffffffffffffffff1673ffffffffffffffffffffffffffffffffffffffff166370a08231336040518263ffffffff1660e01b8152600401808273ffffffffffffffffffffffffffffffffffffffff16815260200191505060206040518083038186803b15801561041757600080fd5b505afa15801561042b573d6000803e3d6000fd5b505050506040513d602081101561044157600080fd5b81019080805190602001909291905050509050818110156104ca576040517f08c379a000000000000000000000000000000000000000000000000000000000815260040180806020018281038252600f8152602001807f4e6f7420456e6f756768204c4d4e20000000000000000000000000000000000081525060200191505060405180910390fd5b600060015483816104d757fe5b049050600081470311610552576040517f08c379a00000000000000000000000000000000000000000000000000000000081526004018080602001828103825260138152602001807f415155492045535441204c41204d4f564944410000000000000000000000000081525060200191505060405180910390fd5b60008054906101000a900473ffffffffffffffffffffffffffffffffffffffff1673ffffffffffffffffffffffffffffffffffffffff166323b872dd33600560009054906101000a900473ffffffffffffffffffffffffffffffffffffffff16866040518463ffffffff1660e01b8152600401808473ffffffffffffffffffffffffffffffffffffffff1681526020018373ffffffffffffffffffffffffffffffffffffffff1681526020018281526020019350505050602060405180830381600087803b15801561062357600080fd5b505af1158015610637573d6000803e3d6000fd5b505050506040513d602081101561064d57600080fd5b81019080805190602001909291905050506106d0576040517f08c379a000000000000000000000000000000000000000000000000000000000815260040180806020018281038252600e8152602001807f4c4d4e206e6f742073656e64656400000000000000000000000000000000000081525060200191505060405180910390fd5b3373ffffffffffffffffffffffffffffffffffffffff166108fc829081150290604051600060405180830381858888f19350505050158015610716573d6000803e3d6000fd5b507ffd625921380c43799bd4f4deaed8df386a699b1863beeeb59327ca0cf730a6bc33828542604051808573ffffffffffffffffffffffffffffffffffffffff16815260200184815260200183815260200182815260200194505050505060405180910390a1505050565b60015481565b6000600460019054906101000a900473ffffffffffffffffffffffffffffffffffffffff1673ffffffffffffffffffffffffffffffffffffffff163373ffffffffffffffffffffffffffffffffffffffff161461084c576040517f08c379a000000000000000000000000000000000000000000000000000000000815260040180806020018281038252600b8152602001807f21676f7665726e616e636500000000000000000000000000000000000000000081525060200191505060405180910390fd5b60008054906101000a900473ffffffffffffffffffffffffffffffffffffffff1673ffffffffffffffffffffffffffffffffffffffff1663a9059cbb600460019054906101000a900473ffffffffffffffffffffffffffffffffffffffff16846040518363ffffffff1660e01b8152600401808373ffffffffffffffffffffffffffffffffffffffff16815260200182815260200192505050602060405180830381600087803b1580156108ff57600080fd5b505af1158015610913573d6000803e3d6000fd5b505050506040513d602081101561092957600080fd5b81019080805190602001909291905050506109ac576040517f08c379a00000000000000000000000000000000000000000000000000000000081526004018080602001828103825260178152602001807f5472616e73666572206e6f74207375636365737366756c00000000000000000081525060200191505060405180910390fd5b60019050919050565b600460019054906101000a900473ffffffffffffffffffffffffffffffffffffffff1681565b60025481565b600560009054906101000a900473ffffffffffffffffffffffffffffffffffffffff1681565b600460019054906101000a900473ffffffffffffffffffffffffffffffffffffffff1673ffffffffffffffffffffffffffffffffffffffff163373ffffffffffffffffffffffffffffffffffffffff1614610aca576040517f08c379a000000000000000000000000000000000000000000000000000000000815260040180806020018281038252600b8152602001807f4e6f7420416c6c6f77656400000000000000000000000000000000000000000081525060200191505060405180910390fd5b600460009054906101000a900460ff1615600460006101000a81548160ff0219169083151502179055503373ffffffffffffffffffffffffffffffffffffffff167f8ca0b4452613fa6cd3575207b354b2500821c6f2f21ea2462df873480fb3c2e3600460009054906101000a900460ff1660405180821515815260200191505060405180910390a2565b60035481565b600460009054906101000a900460ff1681565b6000600460019054906101000a900473ffffffffffffffffffffffffffffffffffffffff1673ffffffffffffffffffffffffffffffffffffffff163373ffffffffffffffffffffffffffffffffffffffff1614610c33576040517f08c379a00000000000000000000000000000000000000000000000000000000081526004018080602001828103825260188152602001807f4f6e6c7920617574686f72697a6564206d6574686f642021000000000000000081525060200191505060405180910390fd5b600460019054906101000a900473ffffffffffffffffffffffffffffffffffffffff1673ffffffffffffffffffffffffffffffffffffffff166108fc839081150290604051600060405180830381858888f19350505050158015610c9b573d6000803e3d6000fd5b5060019050919050565b60008054906101000a900473ffffffffffffffffffffffffffffffffffffffff168156fea2646970667358221220adbf7f99337f8b3e043df1a84d05def61d7239ba1f5fd5bc6d52507bbf5002f264736f6c634300060c0033",
  "immutableReferences": {},
  "source": "pragma solidity 0.6.12;\n\ninterface ERC20 {\n    function totalSupply() external view returns (uint256);\n\n    function balanceOf(address account) external view returns (uint256);\n\n    function transfer(address recipient, uint256 amount)\n        external\n        returns (bool);\n\n    function allowance(address owner, address spender)\n        external\n        view\n        returns (uint256);\n\n    function approve(address spender, uint256 amount) external returns (bool);\n\n    function transferFrom(\n        address sender,\n        address recipient,\n        uint256 amount\n    ) external returns (bool);\n\n    event Transfer(address indexed from, address indexed to, uint256 value);\n    event Approval(\n        address indexed owner,\n        address indexed spender,\n        uint256 value\n    );\n}\n\ncontract LMNExit {\n    ERC20 public token;\n    uint256 public rate;\n    uint256 public totalExit;\n    uint256 public finalPrice;\n\n    bool public state;\n\n    address payable public governance;\n    address public lmnSend;\n\n    event CashBackDone(\n        address investor,\n        uint256 ewtBack,\n        uint256 lmnAmount,\n        uint256 date\n    );\n\n    event StateChange(address indexed user, bool state);\n\n    constructor(\n        address payable _governance,\n        address _lmnSend,\n        ERC20 _token\n    ) public {\n        governance = _governance;\n        lmnSend = _lmnSend;\n        token = _token;\n        rate = 83;\n        totalExit = 0;\n        state = true;\n    }\n\n    receive() external payable {}\n\n    function cashBack(uint256 lmnAmount) public payable {\n        require(state == true, \"Service not Available\");\n\n        uint256 balance = token.balanceOf(msg.sender);\n        require(balance >= lmnAmount, \"Not Enough LMN \");\n        uint256 ewtBack = lmnAmount / rate;\n        require((address(this).balance - ewtBack) > 0, \"AQUI ESTA LA MOVIDA\");\n        require(\n            token.transferFrom(msg.sender, lmnSend, lmnAmount),\n            \"LMN not sended\"\n        );\n        msg.sender.transfer(ewtBack);\n\n        emit CashBackDone(msg.sender, ewtBack, lmnAmount, now);\n    }\n\n    function changeState() public {\n        require(msg.sender == governance, \"Not Allowed\");\n        state = !state;\n\n        emit StateChange(msg.sender, state);\n    }\n\n    function withdrawUnsoldTokens(uint256 _tokens)\n        public\n        returns (bool success)\n    {\n        require(msg.sender == governance, \"!governance\");\n\n        require(token.transfer(governance, _tokens), \"Transfer not successful\");\n\n        return true;\n    }\n\n    function withdrawEthers(uint256 _weiAmount) public returns (bool success) {\n        require(msg.sender == governance, \"Only authorized method !\");\n\n        governance.transfer(_weiAmount);\n\n        return true;\n    }\n}\n",
  "sourcePath": "/Users/roger.capone/Desktop/joder/Front End/Lemon Network Front/Fiverr-Lemoniod-React-master/src/contracts/LMNExit.sol",
  "compiler": {
    "name": "solc",
    "version": "0.6.12+commit.27d51765.Emscripten.clang"
  },
  "schemaVersion": "3.4.1",
  "updatedAt": "2021-12-28T18:05:55.957Z",
  "networkType": "ethereum",
  "devdoc": {
    "kind": "dev",
    "methods": {},
    "version": 1
  },
  "userdoc": {
    "kind": "user",
    "methods": {},
    "version": 1
  }
}