{
  "contractName": "LMNPurchase",
  "abi": [
    {
      "inputs": [
        {
          "internalType": "address payable",
          "name": "_governance",
          "type": "address"
        },
        {
          "internalType": "contract ERC20",
          "name": "_token",
          "type": "address"
        }
      ],
      "stateMutability": "nonpayable",
      "type": "constructor"
    },
    {
      "anonymous": false,
      "inputs": [
        {
          "indexed": true,
          "internalType": "address",
          "name": "user",
          "type": "address"
        },
        {
          "indexed": false,
          "internalType": "uint256",
          "name": "amount",
          "type": "uint256"
        }
      ],
      "name": "Purchase",
      "type": "event"
    },
    {
      "anonymous": false,
      "inputs": [
        {
          "indexed": true,
          "internalType": "address",
          "name": "user",
          "type": "address"
        },
        {
          "indexed": false,
          "internalType": "bool",
          "name": "state",
          "type": "bool"
        }
      ],
      "name": "StateChange",
      "type": "event"
    },
    {
      "inputs": [],
      "name": "governance",
      "outputs": [
        {
          "internalType": "address payable",
          "name": "",
          "type": "address"
        }
      ],
      "stateMutability": "view",
      "type": "function",
      "constant": true
    },
    {
      "inputs": [],
      "name": "rate",
      "outputs": [
        {
          "internalType": "uint256",
          "name": "",
          "type": "uint256"
        }
      ],
      "stateMutability": "view",
      "type": "function",
      "constant": true
    },
    {
      "inputs": [],
      "name": "state",
      "outputs": [
        {
          "internalType": "bool",
          "name": "",
          "type": "bool"
        }
      ],
      "stateMutability": "view",
      "type": "function",
      "constant": true
    },
    {
      "inputs": [],
      "name": "token",
      "outputs": [
        {
          "internalType": "contract ERC20",
          "name": "",
          "type": "address"
        }
      ],
      "stateMutability": "view",
      "type": "function",
      "constant": true
    },
    {
      "inputs": [],
      "name": "ttl_lmn_selled",
      "outputs": [
        {
          "internalType": "uint256",
          "name": "",
          "type": "uint256"
        }
      ],
      "stateMutability": "view",
      "type": "function",
      "constant": true
    },
    {
      "stateMutability": "payable",
      "type": "receive",
      "payable": true
    },
    {
      "inputs": [],
      "name": "purchase",
      "outputs": [],
      "stateMutability": "payable",
      "type": "function",
      "payable": true
    },
    {
      "inputs": [],
      "name": "changeState",
      "outputs": [],
      "stateMutability": "nonpayable",
      "type": "function"
    },
    {
      "inputs": [
        {
          "internalType": "uint256",
          "name": "_tokens",
          "type": "uint256"
        }
      ],
      "name": "withdrawUnsoldTokens",
      "outputs": [
        {
          "internalType": "bool",
          "name": "success",
          "type": "bool"
        }
      ],
      "stateMutability": "nonpayable",
      "type": "function"
    }
  ],
  "bytecode": "0x608060405234801561001057600080fd5b50604051610c32380380610c328339818101604052604081101561003357600080fd5b81019080805190602001909291908051906020019092919050505081600360016101000a81548173ffffffffffffffffffffffffffffffffffffffff021916908373ffffffffffffffffffffffffffffffffffffffff160217905550806000806101000a81548173ffffffffffffffffffffffffffffffffffffffff021916908373ffffffffffffffffffffffffffffffffffffffff160217905550600060018190555060096002819055506001600360006101000a81548160ff0219169083151502179055505050610b278061010b6000396000f3fe60806040526004361061007f5760003560e01c806364edfbf01161004e57806364edfbf01461017b5780638412e66714610185578063c19d93fb1461019c578063fc0c546a146101c95761008e565b80632c4e722e1461009357806345f085a6146100be5780635aa6e6751461010f5780636477f104146101505761008e565b3661008e5761008c61020a565b005b600080fd5b34801561009f57600080fd5b506100a861070c565b6040518082815260200191505060405180910390f35b3480156100ca57600080fd5b506100f7600480360360208110156100e157600080fd5b8101908080359060200190929190505050610712565b60405180821515815260200191505060405180910390f35b34801561011b57600080fd5b50610124610940565b604051808273ffffffffffffffffffffffffffffffffffffffff16815260200191505060405180910390f35b34801561015c57600080fd5b50610165610966565b6040518082815260200191505060405180910390f35b61018361020a565b005b34801561019157600080fd5b5061019a61096c565b005b3480156101a857600080fd5b506101b1610aba565b60405180821515815260200191505060405180910390f35b3480156101d557600080fd5b506101de610acd565b604051808273ffffffffffffffffffffffffffffffffffffffff16815260200191505060405180910390f35b60011515600360009054906101000a900460ff16151514610293576040517f08c379a00000000000000000000000000000000000000000000000000000000081526004018080602001828103825260158152602001807f53657276696365206e6f7420417661696c61626c65000000000000000000000081525060200191505060405180910390fd5b600034905060008060009054906101000a900473ffffffffffffffffffffffffffffffffffffffff1673ffffffffffffffffffffffffffffffffffffffff166370a08231306040518263ffffffff1660e01b8152600401808273ffffffffffffffffffffffffffffffffffffffff16815260200191505060206040518083038186803b15801561032257600080fd5b505afa158015610336573d6000803e3d6000fd5b505050506040513d602081101561034c57600080fd5b8101908080519060200190929190505050116103d0576040517f08c379a00000000000000000000000000000000000000000000000000000000081526004018080602001828103825260158152602001807f546865726520617265206e6f206d6f7265204c4d4e000000000000000000000081525060200191505060405180910390fd5b60006002548202905060008160008054906101000a900473ffffffffffffffffffffffffffffffffffffffff1673ffffffffffffffffffffffffffffffffffffffff166370a08231306040518263ffffffff1660e01b8152600401808273ffffffffffffffffffffffffffffffffffffffff16815260200191505060206040518083038186803b15801561046357600080fd5b505afa158015610477573d6000803e3d6000fd5b505050506040513d602081101561048d57600080fd5b8101908080519060200190929190505050031015610513576040517f08c379a00000000000000000000000000000000000000000000000000000000081526004018080602001828103825260158152602001807f546865726520617265206e6f206d6f7265204c4d4e000000000000000000000081525060200191505060405180910390fd5b600360019054906101000a900473ffffffffffffffffffffffffffffffffffffffff1673ffffffffffffffffffffffffffffffffffffffff166108fc839081150290604051600060405180830381858888f1935050505015801561057b573d6000803e3d6000fd5b5060008054906101000a900473ffffffffffffffffffffffffffffffffffffffff1673ffffffffffffffffffffffffffffffffffffffff1663a9059cbb33836040518363ffffffff1660e01b8152600401808373ffffffffffffffffffffffffffffffffffffffff16815260200182815260200192505050602060405180830381600087803b15801561060d57600080fd5b505af1158015610621573d6000803e3d6000fd5b505050506040513d602081101561063757600080fd5b81019080805190602001909291905050506106ba576040517f08c379a00000000000000000000000000000000000000000000000000000000081526004018080602001828103825260178152602001807f5472616e73666572206e6f74207375636365737366756c00000000000000000081525060200191505060405180910390fd5b3373ffffffffffffffffffffffffffffffffffffffff167f2499a5330ab0979cc612135e7883ebc3cd5c9f7a8508f042540c34723348f632836040518082815260200191505060405180910390a25050565b60025481565b6000600360019054906101000a900473ffffffffffffffffffffffffffffffffffffffff1673ffffffffffffffffffffffffffffffffffffffff163373ffffffffffffffffffffffffffffffffffffffff16146107d7576040517f08c379a000000000000000000000000000000000000000000000000000000000815260040180806020018281038252600b8152602001807f21676f7665726e616e636500000000000000000000000000000000000000000081525060200191505060405180910390fd5b60008054906101000a900473ffffffffffffffffffffffffffffffffffffffff1673ffffffffffffffffffffffffffffffffffffffff1663a9059cbb600360019054906101000a900473ffffffffffffffffffffffffffffffffffffffff16846040518363ffffffff1660e01b8152600401808373ffffffffffffffffffffffffffffffffffffffff16815260200182815260200192505050602060405180830381600087803b15801561088a57600080fd5b505af115801561089e573d6000803e3d6000fd5b505050506040513d60208110156108b457600080fd5b8101908080519060200190929190505050610937576040517f08c379a00000000000000000000000000000000000000000000000000000000081526004018080602001828103825260178152602001807f5472616e73666572206e6f74207375636365737366756c00000000000000000081525060200191505060405180910390fd5b60019050919050565b600360019054906101000a900473ffffffffffffffffffffffffffffffffffffffff1681565b60015481565b600360019054906101000a900473ffffffffffffffffffffffffffffffffffffffff1673ffffffffffffffffffffffffffffffffffffffff163373ffffffffffffffffffffffffffffffffffffffff1614610a2f576040517f08c379a000000000000000000000000000000000000000000000000000000000815260040180806020018281038252600b8152602001807f4e6f7420416c6c6f77656400000000000000000000000000000000000000000081525060200191505060405180910390fd5b600360009054906101000a900460ff1615600360006101000a81548160ff0219169083151502179055503373ffffffffffffffffffffffffffffffffffffffff167f8ca0b4452613fa6cd3575207b354b2500821c6f2f21ea2462df873480fb3c2e3600360009054906101000a900460ff1660405180821515815260200191505060405180910390a2565b600360009054906101000a900460ff1681565b60008054906101000a900473ffffffffffffffffffffffffffffffffffffffff168156fea2646970667358221220e952688daf1091516dd0bd82838304058b1d8214596069a23177a0cd2362cc5a64736f6c634300060c0033",
  "immutableReferences": {},
  "source": "pragma solidity 0.6.12;\n\ninterface ERC20 {\n    function totalSupply() external view returns (uint256);\n\n    function balanceOf(address account) external view returns (uint256);\n\n    function transfer(address recipient, uint256 amount)\n        external\n        returns (bool);\n\n    function allowance(address owner, address spender)\n        external\n        view\n        returns (uint256);\n\n    function approve(address spender, uint256 amount) external returns (bool);\n\n    function transferFrom(\n        address sender,\n        address recipient,\n        uint256 amount\n    ) external returns (bool);\n\n    event Transfer(address indexed from, address indexed to, uint256 value);\n    event Approval(\n        address indexed owner,\n        address indexed spender,\n        uint256 value\n    );\n}\n\ncontract LMNPurchase {\n    ERC20 public token;\n\n    uint256 public ttl_lmn_selled;\n\n    uint256 public rate;\n\n    bool public state;\n\n    address payable public governance;\n\n    event Purchase(address indexed user, uint256 amount);\n    event StateChange(address indexed user, bool state);\n\n    constructor(address payable _governance, ERC20 _token) public {\n        governance = _governance;\n        token = _token;\n        ttl_lmn_selled = 0;\n        rate = 9;\n        state = true;\n    }\n\n    receive() external payable {\n        purchase();\n    }\n\n    function purchase() public payable {\n        require(state == true, \"Service not Available\");\n\n        uint256 weiAmount = msg.value;\n\n        require(token.balanceOf(address(this)) > 0, \"There are no more LMN\");\n\n        uint256 tokens = 0;\n\n        tokens = weiAmount * rate;\n        require(\n            token.balanceOf(address(this)) - tokens >= 0,\n            \"There are no more LMN\"\n        );\n\n        governance.transfer(weiAmount);\n        require(token.transfer(msg.sender, tokens), \"Transfer not successful\");\n\n        emit Purchase(msg.sender, weiAmount);\n    }\n\n    function changeState() public {\n        require(msg.sender == governance, \"Not Allowed\");\n        state = !state;\n\n        emit StateChange(msg.sender, state);\n    }\n\n    function withdrawUnsoldTokens(uint256 _tokens)\n        public\n        returns (bool success)\n    {\n        require(msg.sender == governance, \"!governance\");\n\n        require(token.transfer(governance, _tokens), \"Transfer not successful\");\n\n        return true;\n    }\n}\n",
  "sourcePath": "/Users/roger.capone/Desktop/joder/Front End/Lemon Network Front/Fiverr-Lemoniod-React-master/src/contracts/LMNPurchase.sol",
  "compiler": {
    "name": "solc",
    "version": "0.6.12+commit.27d51765.Emscripten.clang"
  },
  "schemaVersion": "3.4.1",
  "updatedAt": "2021-12-28T18:05:55.953Z",
  "networkType": "ethereum",
  "devdoc": {
    "kind": "dev",
    "methods": {},
    "version": 1
  },
  "userdoc": {
    "kind": "user",
    "methods": {},
    "version": 1
  }
}